:020000040800F2
:10000000000002205D1600081907000827070008F5
:100010002D0700083307000839070008000000001A
:100020000000000000000000000000003F07000882
:100030004D070008000000005B0700086907000882
:10004000AD160008AD160008AD160008AD16000884
:10005000AD160008AD160008AD160008AD16000874
:10006000AD160008AD160008AD160008AD16000864
:10007000AD160008AD160008AD160008AD16000854
:10008000AD160008AD160008AD160008AD16000844
:10009000AD160008AD160008AD160008AD16000834
:1000A000AD160008AD160008AD160008AD16000824
:1000B000AD160008AD160008AD160008AD16000814
:1000C000AD160008AD160008AD160008AD16000804
:1000D000AD160008AD160008AD160008AD160008F4
:1000E000AD160008AD160008AD160008AD160008E4
:1000F000AD160008AD160008AD160008AD160008D4
:10010000AD160008AD160008AD160008AD160008C3
:10011000AD160008AD160008AD160008AD160008B3
:10012000AD160008AD160008AD160008AD160008A3
:10013000AD160008AD160008AD160008AD16000893
:10014000AD160008AD160008AD160008AD16000883
:10015000AD160008AD160008AD160008AD16000873
:10016000AD160008AD160008AD160008AD16000863
:10017000AD160008AD160008AD160008000000001E
:08018000AD160008AD160008E1
:1001900010B5054C237833B9044B13B10448AFF3C1
:1001A00000800123237010BD7000002000000000BB
:1001B0008026000808B5034B1BB103490348AFF381
:1001C000008008BD000000007400002080260008A8
:1001D00001F0FF01102A2BDB10F0070F08D010F8F8
:1001E000013B013A8B422DD010F0070F42B3F6D1FC
:1001F000F0B441EA012141EA014122F007047FF015
:1002000000070023F0E80256083C85EA010586EA6B
:10021000010685FA47F5A3FA87F586FA47F6A5FAA7
:1002200087F68EB9EED1F0BC01F0FF0102F00702B3
:1002300032B110F8013B013A83EA010313B1F8D15E
:100240000020704701387047002D06BF354603383F
:10025000073815F0010F07D1013015F4807F02BF78
:10026000013015F4C03F0130F0BC0138704700BFC9
:1002700053B94AB9002908BF00281CBF4FF0FF310D
:100280004FF0FF3000F07AB9ADF1080C6DE904CE03
:1002900000F006F8DDF804E0DDE9022304B0704761
:1002A0002DE9F0478C460D460446089E002B51D19F
:1002B0008A4217466DD9B2FA82FEBEF1000F0BD00A
:1002C000CEF1200C01FA0EF520FA0CFC02FA0EF722
:1002D0004CEA050C00FA0EF44FEA174A250CBCFB59
:1002E000FAF81FFA87F90AFB18CC45EA0C4508FB17
:1002F00009F3AB420AD9ED1908F1FF3280F02381EE
:10030000AB4240F22081A8F102083D44ED1AA4B2AC
:10031000B5FBFAF00AFB105544EA054400FB09F965
:10032000A14509D9E41900F1FF3380F00A81A14504
:1003300040F2078102383C44A4EB090440EA08403B
:100340000021002E61D024FA0EF400233460736083
:10035000BDE8F0878B4207D9002E54D0002186E8F3
:1003600021000846BDE8F087B3FA83F1002940F088
:100370008E80AB4202D3824200F2FA80841A65EB8F
:1003800003050120AC46002E3FD086E81010BDE8E2
:10039000F08712B90127B7FBF2F7B7FA87FEBEF173
:1003A000000F34D1EB1B3A0C1FFA87FC0121B3FB81
:1003B000F2F8250C02FB183345EA03450CFB08F361
:1003C000AB4207D9ED1908F1FF3002D2AB4200F27F
:1003D000D1808046ED1AA3B2B5FBF2F002FB1055B6
:1003E00043EA05440CFB00FCA44507D9E41900F1DD
:1003F000FF3302D2A44500F2B8801846A4EB0C04E7
:1004000040EA08409DE731463046BDE8F087CEF12E
:10041000200405FA0EF307FA0EF720FA04F83A0C56
:1004200025FA04F448EA0308B4FBF2F14FEA184550
:1004300002FB11441FFA87FC45EA044501FB0CF35B
:10044000AB4200FA0EF409D9ED1901F1FF3080F04A
:100450008A80AB4240F2878002393D44EB1A1FFA92
:1004600088F5B3FBF2F002FB103345EA034500FBCD
:100470000CF3AB4207D9ED1900F1FF386FD2AB4254
:100480006DD902383D44EB1A40EA01418FE7C1F1D2
:10049000200722FA07F88B4005FA01F448EA030323
:1004A00020FA07FE4FEA134CFD404EEA040EB5FB5E
:1004B000FCF94FEA1E440CFB19551FFA83F844EA75
:1004C000054509FB08F4AC4202FA01F200FA01FA10
:1004D00008D9ED1809F1FF3043D2AC4241D9A9F156
:1004E00002091D442D1B1FFA8EFEB5FBFCF00CFB10
:1004F00010554EEA054400FB08F8A04507D9E4185A
:1005000000F1FF3529D2A04527D902381C4440EA22
:100510000940A4EB0804A0FB02894C45C6464D46A1
:1005200015D312D056B1BAEB0E0364EB050404FAEE
:1005300007F7CB401F43CC40376074600021BDE813
:10054000F0871846F8E69046E0E6C245EAD2B8EBF6
:10055000020E69EB03050138E4E72846D7E7404679
:1005600091E78146BEE7014678E702383C4445E71B
:10057000084608E7A8F102083D442BE7704700BF92
:1005800080B500AF00F0C6FA00F02CF800F0D6F904
:10059000074B1B689B680021184601F0D3F80548FB
:1005A00001F0B8F84FF4FA6000F006F8F7E700BF82
:1005B0000C0000209826000880B584B000AF786059
:1005C00000F00EFBF86000BF00F00AFB0246FB687B
:1005D000D21A7B689A42F7D30023FB6000BF103722
:1005E000BD4680BD80B594B000AF07F12003302236
:1005F0000021184601F086F807F10C0300221A606A
:100600005A609A60DA601A610023BB60284A284B5E
:100610001B6C43F080531364254B1B6C03F0805319
:10062000BB60BB6800237B60224A224B1B6843F4FB
:10063000804313601F4B1B6803F480437B607B681F
:1006400001233B624FF480337B620223BB634FF490
:100650008003FB6308233B644FF4A8737B6402238D
:10066000BB640723FB6407F12003184600F0A8FBD6
:100670000346002B01D000F01FF80F23FB6002237C
:100680003B6100237B614FF4A053BB614FF4805367
:10069000FB6107F10C030521184600F001FE03463B
:1006A000002B01D000F008F800BF5037BD4680BDD8
:1006B000003802400070004080B400AF00BFBD466B
:1006C0005DF8047B7047000080B582B000AF002366
:1006D0007B60104A0F4B5B6C43F4804353640D4BBB
:1006E0005B6C03F480437B607B6800233B60094ABA
:1006F000084B1B6C43F080531364064B1B6C03F0D8
:1007000080533B603B68072000F026FB00BF0837A2
:10071000BD4680BD0038024080B400AF00BFBD467A
:100720005DF8047B704780B400AFFEE780B400AF93
:10073000FEE780B400AFFEE780B400AFFEE780B410
:1007400000AF00BFBD465DF8047B704780B400AFCA
:1007500000BFBD465DF8047B704780B400AF00BFAA
:10076000BD465DF8047B704780B500AF00F024FA09
:1007700000BF80BD90B587B000AFF860B9607A6007
:1007800000237B610AE0BC68631CBB60AFF30080A0
:100790000346DBB223707B6901337B617A697B6836
:1007A0009A42F0DB7B6818461C37BD4690BD80B589
:1007B00086B000AFF860B9607A6000237B6109E021
:1007C000BB685A1CBA601B78184600F093F97B6925
:1007D00001337B617A697B689A42F1DB7B6818465A
:1007E0001837BD4680BD000080B584B000AF78608A
:1007F000114B1B68002B02D10F4B104A1A600E4B95
:100800001B68FB600C4B1A687B6813446A46934272
:1008100007D900F04DFF02460C2313604FF0FF3361
:1008200006E0054B1A687B681344034A1360FB68B3
:1008300018461037BD4680BD8C000020A000002067
:1008400080B483B000AF78604FF0FF3318460C37A8
:10085000BD465DF8047B704780B483B000AF78601C
:1008600039603B684FF400525A60002318460C3739
:10087000BD465DF8047B704780B483B000AF7860FC
:10088000012318460C37BD465DF8047B704780B4E1
:1008900085B000AFF860B9607A600023184614375D
:1008A000BD465DF8047B704780B400AF084A084B32
:1008B000D3F8883043F47003C2F88830044B4FF00B
:1008C00000629A6000BFBD465DF8047B704700BFC0
:1008D00000ED00E080B483B000AF00237B60154AD8
:1008E000144B1B6B43F001031363124B1B6B03F0A0
:1008F00001037B607B68104A0F4B1B6843F0A00329
:1009000013600D4A0C4B9B6843F0F00393600A4A56
:10091000094BDB6843F05003D360074A064B1B6A60
:1009200043F4EE43136200BF0C37BD465DF8047B11
:10093000704700BF00380240000002402DE9F04F30
:1009400085B000AF0023FB60FFF7C4FF0023BB604E
:10095000594A594B1B6C43F400331364564B1B6CC0
:1009600003F40033BB60BB68544A544BDB6843F06C
:100970000C03D36000F05EFEF860504B7B60FB68B8
:1009800019464FF000020B461446DB1844EB0404F2
:100990005B1844EB02044FEAC40B4BEA537B4FEA6B
:1009A000C30A53465C4613EB010A44EB020B504664
:1009B00059464FF4E1224FF00003FFF759FC03467C
:1009C0000C461A463E4BA3FB02135B094FEA031A7F
:1009D000FB6819464FF000020B461446DB1844EB47
:1009E00004045B1844EB02044FEAC40949EA537952
:1009F0004FEAC30843464C4613EB010844EB020997
:100A0000404649464FF4E1224FF00003FFF730FC27
:100A100003460C461A462A4BA3FB02135B096421CA
:100A200001FB03F3D31A1B013233254AA2FB031344
:100A30005B0903F0F0030AEB0308FB6819464FF06B
:100A400000020B461446DB1844EB04045B1844EB2D
:100A50000204E60046EA5376DD002B4634465D1874
:100A600044EB0206284631464FF4E1224FF00003E2
:100A7000FFF7FEFB03460C461A46114BA3FB02137D
:100A80005B09642101FB03F3D31A1B0132330C4AC7
:100A9000A2FB03135B0903F00F0343447A689360DE
:100AA000064A064BDB6843F40053D36000BF14379B
:100AB000BD46BDE8F08F00BF003802400044004052
:100AC0001F85EB5180B483B000AF0346FB7100BFBC
:100AD000074B1B6803F08003002BF9D0044AFB7915
:100AE0005360FB7918460C37BD465DF8047B7047B0
:100AF0000044004080B584B000AF78607B68DBB212
:100B00003B733B7B1846FFF7DDFF7B6818461037C9
:100B1000BD4680BD80B500AF0E4A0E4B1B6843F446
:100B2000007313600B4A0B4B1B6843F48063136024
:100B3000084A084B1B6843F480731360032000F0DD
:100B40000BF9002000F008F8FFF7BEFD002318465F
:100B500080BD00BF003C024080B582B000AF78602D
:100B6000124B1A68124B1B7819464FF47A73B3FB79
:100B7000F1F3B2FBF3F3184600F015F90346002B2E
:100B800001D001230EE07B680F2B0AD80022796880
:100B90004FF0FF3000F0EBF8064A7B68136000234B
:100BA00000E0012318460837BD4680BD0000002044
:100BB000080000200400002080B400AF064B1B7822
:100BC0001A46064B1B681344044A136000BFBD4617
:100BD0005DF8047B704700BF0800002098000020EB
:100BE00080B400AF034B1B681846BD465DF8047B1C
:100BF000704700BF9800002080B485B000AF7860D7
:100C00007B6803F00703FB600C4BDB68BB60BA68D2
:100C10004FF6FF031340BB60FB681A02BB68134327
:100C200043F0BF6343F40033BB60044ABB68D36046
:100C300000BF1437BD465DF8047B704700ED00E04F
:100C400080B400AF044BDB681B0A03F007031846AF
:100C5000BD465DF8047B704700ED00E080B483B0D2
:100C600000AF03463960FB7197F90730002B0ADBB0
:100C70000D4997F907303A68D2B21201D2B20B444B
:100C800083F800230AE00949FB7903F00F03043BD2
:100C90003A68D2B21201D2B20B441A7600BF0C37B6
:100CA000BD465DF8047B704700E100E000ED00E028
:100CB00080B489B000AFF860B9607A60FB6803F077
:100CC0000703FB61FB69C3F10703042B28BF04235F
:100CD000BB61FB690433062B02D9FB69033B00E0CF
:100CE00000237B610122BB6902FA03F35A1EBB6831
:100CF0001A407B699A4001217B6901FA03F3591E6E
:100D00007B680B40134318462437BD465DF8047BCF
:100D10007047000080B582B000AF78607B68013B0F
:100D2000B3F1807F01D301230FE00A4A7B68013BC6
:100D300053600F214FF0FF30FFF790FF054B00226B
:100D40009A60044B07221A60002318460837BD46F4
:100D500080BD00BF10E000E080B582B000AF7860D9
:100D60007868FFF749FF00BF0837BD4680BD80B5F2
:100D700086B000AF0346B9607A60FB7300237B61E5
:100D8000FFF75EFF78617A68B9687869FFF790FFCE
:100D9000024697F90F3011461846FFF75FFF00BF74
:100DA0001837BD4680BD80B582B000AF78607868E6
:100DB000FFF7B0FF034618460837BD4680BD000068
:100DC00080B586B000AF78607B68002B01D101232D
:100DD0005BE27B681B6803F00103002B75D0A34B1B
:100DE0009B6803F00C03042B0CD0A04B9B6803F012
:100DF0000C03082B12D19D4B5B6803F48003B3F501
:100E0000800F0BD1994B1B6803F40033002B5BD090
:100E10007B685B68002B57D1012336E27B685B68F7
:100E2000B3F5803F06D1914A904B1B6843F4803361
:100E300013601DE07B685B68B3F5A02F0CD18B4A73
:100E40008A4B1B6843F480231360884A874B1B68D6
:100E500043F4803313600BE0844A844B1B6823F413
:100E600080331360814A814B1B6823F48023136015
:100E70007B685B68002B13D0FFF7B2FE386108E097
:100E8000FFF7AEFE02463B69D31A642B01D9032358
:100E9000FBE1764B1B6803F40033002BF0D014E029
:100EA000FFF79EFE386108E0FFF79AFE02463B69B5
:100EB000D31A642B01D90323E7E16C4B1B6803F4BD
:100EC0000033002BF0D100E000BF7B681B6803F00B
:100ED0000203002B63D0654B9B6803F00C03002BCF
:100EE0000BD0624B9B6803F00C03082B1CD15F4BAB
:100EF0005B6803F48003002B16D15C4B1B6803F086
:100F00000203002B05D07B68DB68012B01D0012395
:100F1000BBE15649554B1B6823F0F8027B681B69FF
:100F2000DB0013430B603AE07B68DB68002B20D0CA
:100F30004F4B01221A60FFF753FE386108E0FFF7BC
:100F40004FFE02463B69D31A022B01D903239CE1D1
:100F5000464B1B6803F00203002BF0D04349434B80
:100F60001B6823F0F8027B681B69DB0013430B60EE
:100F700015E03F4B00221A60FFF732FE386108E0AF
:100F8000FFF72EFE02463B69D31A022B01D9032339
:100F90007BE1364B1B6803F00203002BF0D17B682A
:100FA0001B6803F00803002B30D07B685B69002BC3
:100FB00016D0304B01221A60FFF712FE386108E0AC
:100FC000FFF70EFE02463B69D31A022B01D9032319
:100FD0005BE1264B5B6F03F00203002BF0D015E0C2
:100FE000244B00221A60FFF7FBFD386108E0FFF791
:100FF000F7FD02463B69D31A022B01D9032344E1D2
:101000001A4B5B6F03F00203002BF0D17B681B6867
:1010100003F00403002B00F0A0800023FB75134BAA
:101020001B6C03F08053002B0FD10023BB600F4AD1
:101030000E4B1B6C43F0805313640C4B1B6C03F082
:101040008053BB60BB680123FB750B4B1B6803F42B
:101050008073002B21D1084A074B1B6843F480732F
:101060001360FFF7BDFD386111E000BF003802409A
:1010700000004742800E474200700040FFF7B0FD7D
:1010800002463B69D31A022B01D90323FDE0814BB1
:101090001B6803F48073002BF0D07B689B68012BE6
:1010A00006D17D4A7C4B1B6F43F0010313671CE0A4
:1010B0007B689B68052B0CD1774A774B1B6F43F0FD
:1010C00004031367744A744B1B6F43F001031367E7
:1010D0000BE0714A704B1B6F23F0010313676E4ADC
:1010E0006D4B1B6F23F0040313677B689B68002B19
:1010F00015D0FFF775FD38610AE0FFF771FD024674
:101100003B69D31A41F28832934201D90323BCE0F0
:10111000614B1B6F03F00203002BEED014E0FFF7CE
:101120005FFD38610AE0FFF75BFD02463B69D31AB9
:1011300041F28832934201D90323A6E0564B1B6F3C
:1011400003F00203002BEED1FB7D012B05D1524AA7
:10115000514B1B6C23F0805313647B689B69002BFD
:1011600000F092804C4B9B6803F00C03082B5CD082
:101170007B689B69022B41D1484B00221A60FFF724
:101180002FFD386108E0FFF72BFD02463B69D31ABB
:10119000022B01D9032378E03F4B1B6803F0007357
:1011A000002BF0D13C497B68DA697B681B6A1A43E3
:1011B0007B685B6A9B011A437B689B6A5B08013B07
:1011C0001B041A437B68DB6A1B0613434B60334BDB
:1011D00001221A60FFF704FD386108E0FFF700FD07
:1011E00002463B69D31A022B01D903234DE02A4B57
:1011F0001B6803F00073002BF0D045E0274B002262
:101200001A60FFF7EDFC386108E0FFF7E9FC0246E1
:101210003B69D31A022B01D9032336E01E4B1B680E
:1012200003F00073002BF0D12EE07B689B69012B4B
:1012300001D1012329E0184B5B68FB60FB6803F4D4
:1012400080027B68DB699A421CD1FB6803F03F0295
:101250007B681B6A9A4215D1FA6847F6C07313403F
:101260007A68526A93420DD1FB6803F440327B687E
:101270009B6A9A4206D1FB6803F070627B68DB6A66
:101280009A4201D0012300E0002318461837BD46DA
:1012900080BD00BF0070004000380240600047423F
:1012A00080B584B000AF786039607B68002B01D1D5
:1012B0000123CCE0684B1B6803F00F023B689A42A5
:1012C0000CD2654B3A68D2B21A70634B1B6803F0BC
:1012D0000F023B689A4201D00123B8E07B681B688B
:1012E00003F00203002B20D07B681B6803F004038B
:1012F000002B05D0594A594B9B6843F4E053936047
:101300007B681B6803F00803002B05D0534A534B3E
:101310009B6843F4604393605049504B9B6823F0B3
:10132000F0027B689B6813438B607B681B6803F04B
:101330000103002B44D07B685B68012B07D1474B2E
:101340001B6803F40033002B19D101237FE07B6875
:101350005B68022B03D07B685B68032B07D13F4B94
:101360001B6803F00073002B09D101236FE03B4B96
:101370001B6803F00203002B01D1012367E037490A
:10138000364B9B6823F003027B685B6813438B60DA
:10139000FFF726FCF8600AE0FFF722FC0246FB6834
:1013A000D31A41F28832934201D903234FE02B4BE9
:1013B0009B6803F00C027B685B689B009A42EBD150
:1013C000254B1B6803F00F023B689A420CD9224B55
:1013D0003A68D2B21A70204B1B6803F00F023B68C8
:1013E0009A4201D0012332E07B681B6803F00403BA
:1013F000002B08D01949194B9B6823F4E0527B68F5
:10140000DB6813438B607B681B6803F00803002BC9
:1014100009D01249114B9B6823F460427B681B6919
:10142000DB0013438B6000F021F801460B4B9B68F7
:101430001B0903F00F030A4AD35C21FA03F3094A9C
:101440001360094B1B681846FFF786FB00231846FC
:101450001037BD4680BD00BF003C0240003802404E
:10146000A826000800000020040000202DE9F04F0D
:101470008FB000AF0023FB6200237B630023BB62BD
:1014800000233B63624B9B6803F00C03042B07D0E3
:10149000082B08D0002B40F0B2805E4B3B63B1E0DC
:1014A0005D4B3B63AEE05A4B5B6803F03F03FB626E
:1014B000574B5B6803F48003002B4ED0544B5B68A2
:1014C0009B094FF0000440F2FF114FF0000201EAC7
:1014D000030102EA04020B46144660017862786A4E
:1014E00040EAD36078625B013B62D7E908345B1A5B
:1014F00064EB02044FEA841949EA93694FEA8318BE
:10150000B8EB030869EB04094FEAC903FB61FB6907
:1015100043EA5873FB614FEAC803BB61D7E9068908
:1015200018EB010849EB02094FEA49237B617B690B
:1015300043EAD8537B614FEA48233B61D7E90489EA
:1015400040464946FB6A4FF000041A462346FEF720
:101550008FFE03460C467B6343E02D4B5B689B0983
:101560004FF0000440F2FF114FF0000201EA0301C6
:1015700002EA04020B4614466001F860F86840EA8B
:10158000D360F8605B01BB60D7E902345B1A64EB9F
:101590000204A60146EA93669D01ED1A66EB040675
:1015A000F3007B607B6843EA55737B60EB003B6034
:1015B00097E860006D1846EB02064FEA862B4BEA6F
:1015C000955B4FEA852A55465E4628463146FB6ABA
:1015D0004FF000041A462346FEF74AFE03460C4627
:1015E0007B630B4B5B681B0C03F0030301335B0055
:1015F000BB627A6BBB6AB2FBF3F33B6302E0054B61
:101600003B6300BF3B6B18463C37BD46BDE8F08FDF
:10161000003802400024F40000127A0080B400AFC9
:10162000034B1B681846BD465DF8047B704700BF3E
:101630000000002080B500AFFFF7F0FF0146054B2A
:101640009B689B0A03F00703034AD35C21FA03F368
:10165000184680BD00380240B8260008DFF834D0B4
:10166000002103E00C4B5B58435004310B480C4BFA
:1016700042189A42F6D30B4A02E0002342F8043B98
:10168000094B9A42F9D3FFF70FF900F017F8FEF76C
:1016900077FF704700000220682700080000002044
:1016A0007000002070000020A0000020FEE7000075
:1016B000014B1868704700BF0C00002070B50D4E3C
:1016C0000D4CA41BA4100025A54209D10B4E0C4CB7
:1016D00000F0D6FFA41BA4100025A54205D170BDC3
:1016E00056F8253098470135EEE756F825309847EB
:1016F0000135F2E76027000860270008602700082E
:101700006427000802440346934200D1704703F85F
:10171000011BF9E70FB40A4B13B51C6824B1A36988
:1017200013B9204600F0B6F905AB049AA1680193FD
:10173000204600F07BFB02B0BDE8104004B07047CB
:101740000C00002000294FF480630CBF022200220D
:1017500000F000B82DE9F7431D46514B1E680446C2
:101760000F46904626B1B36913B9304600F092F99E
:101770004C4B9C4252D17468B8F1020F06D0B8F1BC
:10178000010F00F28980002DC0F28680214630468C
:1017900000F016F9616B41B104F14403994202D0A3
:1017A000304600F06DFA002363630023A361636099
:1017B000A3891B0603D52169304600F061FAA3898D
:1017C00023F44A6323F00303B8F1020FA3815DD031
:1017D00001AB6A462146304600F0E6F9A38918437A
:1017E000A0812DBB009D284600F042FA0746002844
:1017F0004ED1DDF80090A9453CD14FF0FF30A389D0
:1018000043F00203A3810023A36004F14703236094
:1018100023610123636103B0BDE8F083224B9C4246
:1018200001D1B468A8E7214B9C4208BFF468A3E744
:10183000002FD8D0B36913B9304600F02BF9B8F1B6
:10184000010F08BFA389276004BF43F00103A381F0
:10185000A389276113F0080065611BD013F0010014
:1018600018BF6D424FF000031DBFA360A56118466D
:10187000A560D0E7484600F0FBF907460028BCD039
:10188000A38943F08003A3814D46D3E70020B6E748
:10189000A946F5E7A060BEE74FF0FF30BBE700BF09
:1018A0000C000020E426000804270008C4260008D5
:1018B0008A892DE9F041054610070C465AD44B6839
:1018C000002B05DC0B6C002B02DC0020BDE8F08156
:1018D000E66A002EF9D0002312F480522F682B60A4
:1018E00033D0606DA3895A0705D56368C01A636B4E
:1018F0000BB1236CC01A00230246E66A216A28460F
:10190000B047431CA38906D129681D294BD82B4A0F
:10191000CA40D60747D500226260D90422692260F6
:1019200004D5421C01D12B6803B96065616B2F603F
:101930000029CAD004F14403994202D0284600F09D
:101940009FF900206063BDE8F081216A01232846E9
:10195000B047411CC6D12B68002BC3D01D2B01D032
:10196000162B01D12F60B0E7A38943F04003A38178
:10197000BDE8F0810F69002FA7D093070E6808BF5C
:101980004B690F6018BF0023A6EB07088B60B8F106
:10199000000F9ADD43463A46216AA66A2846B047B8
:1019A000002807DCA38943F04003A3814FF0FF30F8
:1019B000BDE8F0810744A8EB0008E8E701004020FB
:1019C00038B50B6905460C46DBB118B183690BB914
:1019D00000F060F80C4B9C4209D16C68B4F90C30F3
:1019E0007BB121462846BDE83840FFF761BF074B71
:1019F0009C4201D1AC68F1E7054B9C4208BFEC6802
:101A0000ECE7002038BD00BFE426000804270008EA
:101A1000C4260008014900F0A9B800BFC119000898
:101A2000002310B5044603604360836081814366F0
:101A3000C281036143618361194608225C30FFF76C
:101A400061FE054B6362054BA362054BE362054BE8
:101A50002462236310BD00BFA5230008C72300082C
:101A6000FF2300082324000870B54A1E682555434B
:101A70000E4605F1740100F051F9044640B1002111
:101A800080E842000C30A06005F16802FFF73AFEE2
:101A9000204670BD836910B5044633BB8364C364BC
:101AA0000365124B124A1B688262984204BF0123ED
:101AB000836100F01FF86060204600F01BF8A06012
:101AC000204600F017F80022E06004216068FFF76C
:101AD000A7FF01220921A068FFF7A2FF022212211D
:101AE000E068FFF79DFF0123A36110BDC026000839
:101AF000151A0008F8B51C4B1E68B369074613B9E0
:101B00003046FFF7C7FF4836B4687368013B03D51A
:101B1000336833B13668F7E7B4F90C506DB1683407
:101B2000F4E704213846FFF79FFF30600028F1D129
:101B30000C233B6004462046F8BD4FF6FF73E3815B
:101B40000123A38165662560A560656025616561E7
:101B5000A5610822294604F15C00FFF7D3FD656307
:101B6000A563A564E564E6E7C02600082DE9F8430F
:101B70008046894600F14804002614B93046BDE885
:101B8000F883A5686768013F01D52468F5E7AB894C
:101B9000012B07D9B5F90E30013303D02946404651
:101BA000C84706436835EEE770B50E46B1F90E102A
:101BB000002990B014461D4607DA00232B60B38934
:101BC0001A0610D44FF480630EE001AA00F010FD55
:101BD0000028F2DB029A02F47042A2F500535A4246
:101BE0005A412A60EEE740230020236010B070BD08
:101BF0008B8973B59D0706460C4607D504F147034C
:101C0000236023610123636102B070BD01AB6A46AA
:101C1000FFF7CAFF00990546304600F07FF848B943
:101C2000B4F90C309A05EFD423F0030343F0020318
:101C3000A381E3E70D4BB362A389206043F08003E7
:101C4000A381009B6361019B20615BB1B4F90E101D
:101C5000304600F0DFFC28B1A38923F0030343F0F2
:101C60000103A381A3891D43A581CDE7151A0008AF
:101C7000024B0146186800F051B800BF0C0000206C
:101C800038B50546002945D051F8043C0C1F002BFF
:101C9000B8BFE41800F0E0FC1F4A1368104633B9DF
:101CA000636014602846BDE8384000F0D6BCA3420B
:101CB0000CD921686218934204BF1A685B6863609C
:101CC00004BF521822600460ECE713465A680AB158
:101CD000A242FAD919685818A0420BD120680144D1
:101CE000581882421960DDD1106852685A60014468
:101CF0001960D7E702D90C232B60D3E7206821189D
:101D00008A4204BF11685268626004BF09182160EA
:101D10005C60C7E738BD00BF9000002070B5CD1CE7
:101D200025F0030508350C2D38BF0C25002D06467F
:101D300001DBA94203D90C233360002070BD00F001
:101D40008BFC234A1468214691B9224C23681BB9A5
:101D5000304600F017FB20602946304600F012FBA9
:101D6000431C26D10C233360304600F076FCE4E7B8
:101D70000B685B1B1AD40B2B0FD90B60CD50CC1802
:101D8000304600F06AFC04F10B00231D20F0070030
:101D9000C31A1BD05A42E25070BD8C420DBF63681B
:101DA0004B686360136018BF0C46E9E70C4649684E
:101DB000CAE7C41C24F00304A04205D0211A30460F
:101DC00000F0E0FA0130CDD02560D9E770BD00BF4A
:101DD00090000020940000209368013B002B10B479
:101DE000936009DA9469A34202DBCBB20A2B03D1D8
:101DF0005DF8044B00F01ABB1368581C1060197092
:101E0000C8B25DF8044B7047F8B506460F46144655
:101E1000D518AC4201D1002007E03A4614F8011B66
:101E20003046FFF7D9FF431CF3D1F8BD2DE9F04F41
:101E30009DB00C4617460393064618B183690BB94B
:101E4000FFF728FE7C4B9C4257D17468A389180782
:101E50005DD52369002B5AD00023099320238DF8E8
:101E6000293030238DF82A304FF0010BB846454613
:101E700015F8013B002B55D1B8EB070A0BD05346A0
:101E80003A4621463046FFF7BFFF013000F0C480DC
:101E9000099B5344099398F80030002B00F0BC8054
:101EA00000234FF0FF3204930793059206938DF8B9
:101EB00053301A93052229786048FEF789F905F115
:101EC0000108049B002831D1D90644BF20228DF897
:101ED00053201A0744BF2B228DF853202A782A2A30
:101EE0002CD0079A00210A20A846013598F8003026
:101EF000303B092B6DD971B326E0514B9C4201D187
:101F0000B468A3E74F4B9C4208BFF4689EE72146A4
:101F1000304600F0EFFA00289ED04FF0FF301DB0A1
:101F2000BDE8F08F252BA7D0A846A0E7434A801A2A
:101F30000BFA00F0184304904546BBE7039A111DC5
:101F400012680391002A01DB079204E0524243F039
:101F500002030792049398F800302E2B10D198F8C2
:101F600001302A2B08F1010137D1039B1A1D1B6890
:101F70000392002BB8BF4FF0FF3308F1020805931E
:101F8000314D98F8001003222846FEF721F940B1A0
:101F90004023401B03FA00F0049B0343049308F121
:101FA000010898F8001029488DF82810062208F139
:101FB0000107FEF70DF9002834D0254B03BB039B26
:101FC000073323F0070308330393099B4B4409931A
:101FD0004CE700FB0232012186E7002305931846F7
:101FE0000A258846013198F80020303A092A03D999
:101FF000002BC5D00590C3E705FB00200123F0E7C7
:1020000003AB00932246134B04A93046AFF3008084
:10201000B0F1FF3F8146D8D1A3895B063FF57DAF84
:1020200009987CE703AB009322460A4B04A930468B
:1020300000F088F8ECE700BFE42600082427000839
:1020400004270008C42600082A2700082E270008B5
:1020500000000000091E00082DE9F04791461F46C8
:102060008A680B69DDF820809342B8BF1346C9F82F
:10207000003091F8432006460C4612B10133C9F8EE
:1020800000302368990642BFD9F800300233C9F8FE
:102090000030256815F0060507D104F1190AE36838
:1020A000D9F800209B1A9D4229DB94F8433022681E
:1020B000003318BF012392062ED404F1430239469F
:1020C0003046C047013021D02368E568D9F80020A8
:1020D00003F00603042B08BFAD1AA36822690CBFE6
:1020E00025EAE57500259342C4BF9B1AED184FF011
:1020F00000091A344D451BD10020BDE8F0870123AB
:10210000524639463046C047013003D14FF0FF30C8
:10211000BDE8F0870135C2E7E1185A1C302081F88C
:102120004300224494F8451082F843100233C4E778
:102130000123224639463046C0470130E6D009F136
:102140000109D7E72DE9F04317460A7E85B06E2ACC
:10215000984606460C460C9B01F1430E00F0BC80ED
:102160001AD8632A2ED00AD8002A00F0C880582A2C
:1021700000F08A8004F1420584F842202AE0642AB3
:1021800001D0692AF6D121681A6811F0800F23D096
:10219000111D1960136827E0732A00F0B48008D875
:1021A0006F2A2AD0702AE5D10A6842F020020A601C
:1021B00003E0752A21D0782ADCD1782284F84520E2
:1021C0006E4964E01A6801F14205111D1960136837
:1021D00084F842300123A3E011F0400F02F1040122
:1021E0001960D7D0B2F90030002B03DA2D225B4200
:1021F00084F8432062490A2217E02068196810F029
:10220000800F03D0081D18600B6806E010F0400F27
:1022100001F104001860F7D00B8859496F2A14BFE8
:102220000A220822002084F843006568A560002D7A
:10223000C0F29C80206820F004002060002B3FD179
:10224000002D40F095807546082A0BD12368DA07E7
:1022500008D5236962689A42DEBF302305F8013C45
:1022600005F1FF35AEEB05032361CDF800803B4659
:1022700003AA21463046FFF7EFFE013055D14FF05B
:10228000FF3005B0BDE8F08381F845203C49226865
:10229000186812F0800F00F104051D6001D003687A
:1022A00002E05506FBD50388D00744BF42F0200268
:1022B00022601BB9226822F0200222601022B1E7BE
:1022C0007546B3FBF2F002FB1033CB5C05F8013D21
:1022D00003460028F5D1B7E708681A68496910F085
:1022E000800F04D0101D18601368196007E010F00B
:1022F000400F02F1040018601368F6D01980002323
:1023000023617546B1E71A68111D19601568626886
:1023100000212846FDF75CFF08B1401B6060636840
:102320002361002384F843309FE723692A46394616
:102330003046C0470130A2D023689B0707D500254F
:1023400004F11909E368039A9B1A9D4205DBE068D2
:10235000039B9842B8BF184693E701234A46394683
:102360003046C04701308AD00135EBE7002BA7D1BA
:102370000B7884F8423004F1420565E746270008EF
:102380003527000838B5064C00230546084623606B
:10239000FEF72AFA431C02D1236803B12B6038BD33
:1023A0009C00002010B50C46B1F90E1000F056F953
:1023B0000028ABBF636DA3891B1823F48053ACBF07
:1023C0006365A38110BD2DE9F0411F468B89DB05B4
:1023D00005460C46164605D502230022B1F90E101B
:1023E00000F028F9A389B4F90E1023F48053A381D7
:1023F00032463B462846BDE8F04100F069B810B5CA
:102400000C46B1F90E1000F015F9431CA38915BF55
:10241000606523F4805343F48053A38118BFA381E4
:1024200010BDB1F90E1000F0D3B80000F8B50E469B
:102430001446054618B183690BB9FFF72BFB214BF6
:102440009C422AD16C68A369A360A3891A072ED580
:10245000236963B323692068C01A6369F6B298429E
:10246000374604DB21462846FFF7AAFA28BBA368B3
:10247000013BA36023685A1C22601E70636901300F
:10248000984204D0A389DB0719D50A2E17D121461B
:102490002846FFF795FA90B10FE00B4B9C4201D113
:1024A000AC68D0E7094B9C4208BFEC68CBE72146FB
:1024B000284600F01FF80028CCD04FF0FF373846F0
:1024C000F8BD00BFE426000804270008C426000861
:1024D00038B5074C054608461146002222601A46C8
:1024E000FEF765F9431C02D1236803B12B6038BDA8
:1024F0009C000020324B70B51D6806460C4625B185
:10250000AB6913B92846FFF7C5FA2E4B9C420FD191
:102510006C68B4F90C309AB215072CD4D00611D4DB
:102520000922326043F04003A3814FF0FF3070BDB9
:10253000254B9C4201D1AC68EBE7244B9C4208BF81
:10254000EC68E6E7510712D5616B41B104F1440331
:10255000994202D03046FFF793FB00236363A389BF
:1025600023F02403A3810023636023692360A389EC
:1025700043F00803A38123694BB9A38903F42073B3
:10258000B3F5007F03D021463046FFF731FBA28927
:1025900012F001030CD00023A36063695B42A361C6
:1025A000236953B9B4F90C3013F08000BAD170BD6F
:1025B000920758BF6369A360F2E70020F7E700BF06
:1025C0000C000020E426000804270008C4260008A8
:1025D00038B5064C0023054608462360FEF730F95F
:1025E000431C02D1236803B12B6038BD9C0000203E
:1025F00038B5074C00230546084611462360FEF710
:102600002BF9431C02D1236803B12B6038BD00BFF6
:102610009C00002038B5064C002305460846236080
:10262000FEF72AF9431C02D1236803B12B6038BDA1
:102630009C00002038B5074C05460846114600228C
:1026400022601A46FEF723F9431C02D1236803B126
:102650002B6038BD9C0000207047704738B5074C90
:10266000054608461146002222601A46FEF782F807
:10267000431C02D1236803B12B6038BD9C000020AD
:10268000F8B500BFF8BC08BC9E467047F8B500BF5F
:08269000F8BC08BC9E4670472F
:1026980048656C6C6F2C20776F726C6421000000A9
:1026A80000000000000000000102030406070809FA
:1026B80000000000010203041000002000000000D8
:1026C8000000000000000000000000000000000002
:1026D80000000000000000000000000000000000F2
:1026E80000000000000000000000000000000000E2
:1026F80000000000000000000000000000000000D2
:1027080000000000000000000000000000000000C1
:10271800000000000000000000000000232D302B06
:102728002000686C4C0065666745464700303132CA
:102738003334353637383941424344454600303121
:102748003233343536373839616263646566000080
:0827580048DBFF7F01000000D7
:04276000B5010008B7
:0427640091010008D7
:102768000024F40010000000010000001000002008
:1027780000000000E426000804270008C42600081A
:102788000000000000000000000000000000000041
:102798000000000000000000000000000000000031
:1027A8000000000000000000000000000000000021
:1027B8000000000000000000000000000000000011
:1027C8000000000000000000000000000000000001
:040000050800165D7C
:00000001FF
